{
  "contractName": "SupplyChain",
  "abi": [
    {
      "inputs": [
        {
          "internalType": "address[]",
          "name": "accounts",
          "type": "address[]"
        }
      ],
      "stateMutability": "nonpayable",
      "type": "constructor"
    },
    {
      "anonymous": false,
      "inputs": [
        {
          "indexed": true,
          "internalType": "uint256",
          "name": "_candidateId",
          "type": "uint256"
        }
      ],
      "name": "transferedEvent",
      "type": "event"
    },
    {
      "inputs": [],
      "name": "amountToUpdate",
      "outputs": [
        {
          "internalType": "uint256",
          "name": "",
          "type": "uint256"
        }
      ],
      "stateMutability": "view",
      "type": "function",
      "constant": true
    },
    {
      "inputs": [],
      "name": "arrivalToUpdate",
      "outputs": [
        {
          "internalType": "string",
          "name": "",
          "type": "string"
        }
      ],
      "stateMutability": "view",
      "type": "function",
      "constant": true
    },
    {
      "inputs": [
        {
          "internalType": "uint256",
          "name": "",
          "type": "uint256"
        }
      ],
      "name": "candidates",
      "outputs": [
        {
          "internalType": "uint256",
          "name": "id",
          "type": "uint256"
        },
        {
          "internalType": "address",
          "name": "Account",
          "type": "address"
        },
        {
          "internalType": "uint256",
          "name": "chainSeqNo",
          "type": "uint256"
        },
        {
          "internalType": "bool",
          "name": "isOwner",
          "type": "bool"
        }
      ],
      "stateMutability": "view",
      "type": "function",
      "constant": true
    },
    {
      "inputs": [],
      "name": "candidatesCount",
      "outputs": [
        {
          "internalType": "uint256",
          "name": "",
          "type": "uint256"
        }
      ],
      "stateMutability": "view",
      "type": "function",
      "constant": true
    },
    {
      "inputs": [],
      "name": "chainCount",
      "outputs": [
        {
          "internalType": "uint256",
          "name": "",
          "type": "uint256"
        }
      ],
      "stateMutability": "view",
      "type": "function",
      "constant": true
    },
    {
      "inputs": [],
      "name": "contractOwner",
      "outputs": [
        {
          "internalType": "address",
          "name": "",
          "type": "address"
        }
      ],
      "stateMutability": "view",
      "type": "function",
      "constant": true
    },
    {
      "inputs": [],
      "name": "departureToUpdate",
      "outputs": [
        {
          "internalType": "string",
          "name": "",
          "type": "string"
        }
      ],
      "stateMutability": "view",
      "type": "function",
      "constant": true
    },
    {
      "inputs": [],
      "name": "descriptionToUpdate",
      "outputs": [
        {
          "internalType": "string",
          "name": "",
          "type": "string"
        }
      ],
      "stateMutability": "view",
      "type": "function",
      "constant": true
    },
    {
      "inputs": [],
      "name": "i",
      "outputs": [
        {
          "internalType": "uint256",
          "name": "",
          "type": "uint256"
        }
      ],
      "stateMutability": "view",
      "type": "function",
      "constant": true
    },
    {
      "inputs": [
        {
          "internalType": "address",
          "name": "",
          "type": "address"
        }
      ],
      "name": "owners",
      "outputs": [
        {
          "internalType": "bool",
          "name": "",
          "type": "bool"
        }
      ],
      "stateMutability": "view",
      "type": "function",
      "constant": true
    },
    {
      "inputs": [],
      "name": "productToUpdate",
      "outputs": [
        {
          "internalType": "string",
          "name": "",
          "type": "string"
        }
      ],
      "stateMutability": "view",
      "type": "function",
      "constant": true
    },
    {
      "inputs": [
        {
          "internalType": "uint256",
          "name": "",
          "type": "uint256"
        }
      ],
      "name": "products",
      "outputs": [
        {
          "internalType": "uint256",
          "name": "productId",
          "type": "uint256"
        },
        {
          "internalType": "string",
          "name": "name",
          "type": "string"
        }
      ],
      "stateMutability": "view",
      "type": "function",
      "constant": true
    },
    {
      "inputs": [],
      "name": "productsCount",
      "outputs": [
        {
          "internalType": "uint256",
          "name": "",
          "type": "uint256"
        }
      ],
      "stateMutability": "view",
      "type": "function",
      "constant": true
    },
    {
      "inputs": [
        {
          "internalType": "address",
          "name": "",
          "type": "address"
        }
      ],
      "name": "senders",
      "outputs": [
        {
          "internalType": "bool",
          "name": "",
          "type": "bool"
        }
      ],
      "stateMutability": "view",
      "type": "function",
      "constant": true
    },
    {
      "inputs": [
        {
          "internalType": "uint256",
          "name": "",
          "type": "uint256"
        }
      ],
      "name": "transferShipments",
      "outputs": [
        {
          "internalType": "uint256",
          "name": "transferId",
          "type": "uint256"
        },
        {
          "internalType": "address",
          "name": "origin",
          "type": "address"
        },
        {
          "internalType": "address",
          "name": "destination",
          "type": "address"
        },
        {
          "internalType": "string",
          "name": "product",
          "type": "string"
        },
        {
          "internalType": "uint256",
          "name": "amount",
          "type": "uint256"
        },
        {
          "internalType": "string",
          "name": "departureDate",
          "type": "string"
        },
        {
          "internalType": "string",
          "name": "arrivalDate",
          "type": "string"
        },
        {
          "internalType": "string",
          "name": "description",
          "type": "string"
        }
      ],
      "stateMutability": "view",
      "type": "function",
      "constant": true
    },
    {
      "inputs": [],
      "name": "transferShipmentsCount",
      "outputs": [
        {
          "internalType": "uint256",
          "name": "",
          "type": "uint256"
        }
      ],
      "stateMutability": "view",
      "type": "function",
      "constant": true
    },
    {
      "inputs": [],
      "name": "getProductToUpdate",
      "outputs": [
        {
          "internalType": "string",
          "name": "",
          "type": "string"
        }
      ],
      "stateMutability": "view",
      "type": "function",
      "constant": true
    },
    {
      "inputs": [
        {
          "internalType": "string",
          "name": "_productToUpdate",
          "type": "string"
        },
        {
          "internalType": "uint256",
          "name": "_amountToUpdate",
          "type": "uint256"
        },
        {
          "internalType": "string",
          "name": "_departureToUpdate",
          "type": "string"
        },
        {
          "internalType": "string",
          "name": "_arrivalToUpdate",
          "type": "string"
        },
        {
          "internalType": "string",
          "name": "_descriptionToUpdate",
          "type": "string"
        }
      ],
      "name": "setValues",
      "outputs": [],
      "stateMutability": "nonpayable",
      "type": "function"
    },
    {
      "inputs": [
        {
          "internalType": "string",
          "name": "_productName",
          "type": "string"
        }
      ],
      "name": "addProduct",
      "outputs": [],
      "stateMutability": "nonpayable",
      "type": "function"
    },
    {
      "inputs": [
        {
          "internalType": "address",
          "name": "_address",
          "type": "address"
        },
        {
          "internalType": "bool",
          "name": "_isTheOwner",
          "type": "bool"
        },
        {
          "internalType": "uint256",
          "name": "_chainNo",
          "type": "uint256"
        }
      ],
      "name": "addCandidate",
      "outputs": [],
      "stateMutability": "nonpayable",
      "type": "function"
    },
    {
      "inputs": [
        {
          "internalType": "address",
          "name": "_origin",
          "type": "address"
        },
        {
          "internalType": "address",
          "name": "_destination",
          "type": "address"
        },
        {
          "internalType": "string",
          "name": "_product",
          "type": "string"
        },
        {
          "internalType": "uint256",
          "name": "_amount",
          "type": "uint256"
        },
        {
          "internalType": "string",
          "name": "_departureDate",
          "type": "string"
        },
        {
          "internalType": "string",
          "name": "_arrivalDate",
          "type": "string"
        },
        {
          "internalType": "string",
          "name": "_description",
          "type": "string"
        }
      ],
      "name": "addTransferShipment",
      "outputs": [],
      "stateMutability": "nonpayable",
      "type": "function"
    },
    {
      "inputs": [
        {
          "internalType": "uint256",
          "name": "_candidateId",
          "type": "uint256"
        }
      ],
      "name": "transfer",
      "outputs": [],
      "stateMutability": "nonpayable",
      "type": "function"
    },
    {
      "inputs": [],
      "name": "addMultipleProducts",
      "outputs": [],
      "stateMutability": "nonpayable",
      "type": "function"
    }
  ],
  "bytecode": "0x608060405260016003556000600f553480156200001b57600080fd5b5060405162002bf838038062002bf8833981810160405281019062000041919062000837565b62000051620002b460201b60201c565b5b8051600f541015620002ad576000806000600f541415620001995782600f5481518110620000a9577f4e487b7100000000000000000000000000000000000000000000000000000000600052603260045260246000fd5b60200260200101516000806101000a81548173ffffffffffffffffffffffffffffffffffffffff021916908373ffffffffffffffffffffffffffffffffffffffff16021790555060016002600085600f548151811062000132577f4e487b7100000000000000000000000000000000000000000000000000000000600052603260045260246000fd5b602002602001015173ffffffffffffffffffffffffffffffffffffffff1673ffffffffffffffffffffffffffffffffffffffff16815260200190815260200160002060006101000a81548160ff021916908315150217905550600191506001905062000235565b60006002600085600f5481518110620001db577f4e487b7100000000000000000000000000000000000000000000000000000000600052603260045260246000fd5b602002602001015173ffffffffffffffffffffffffffffffffffffffff1673ffffffffffffffffffffffffffffffffffffffff16815260200190815260200160002060006101000a81548160ff0219169083151502179055505b6200028b83600f548151811062000275577f4e487b7100000000000000000000000000000000000000000000000000000000600052603260045260246000fd5b602002602001015183836200057260201b60201c565b5050600f6000815480929190620002a290620009b0565b919050555062000052565b5062000aa5565b620002fa6040518060400160405280600981526020017f50726f64756374203000000000000000000000000000000000000000000000008152506200065c60201b60201c565b620003406040518060400160405280600981526020017f50726f64756374203100000000000000000000000000000000000000000000008152506200065c60201b60201c565b620003866040518060400160405280600981526020017f50726f64756374203200000000000000000000000000000000000000000000008152506200065c60201b60201c565b620003cc6040518060400160405280600981526020017f50726f64756374203300000000000000000000000000000000000000000000008152506200065c60201b60201c565b620004126040518060400160405280600981526020017f50726f64756374203400000000000000000000000000000000000000000000008152506200065c60201b60201c565b620004586040518060400160405280600981526020017f50726f64756374203500000000000000000000000000000000000000000000008152506200065c60201b60201c565b6200049e6040518060400160405280600981526020017f50726f64756374203600000000000000000000000000000000000000000000008152506200065c60201b60201c565b620004e46040518060400160405280600981526020017f50726f64756374203700000000000000000000000000000000000000000000008152506200065c60201b60201c565b6200052a6040518060400160405280600981526020017f50726f64756374203800000000000000000000000000000000000000000000008152506200065c60201b60201c565b620005706040518060400160405280600981526020017f50726f64756374203900000000000000000000000000000000000000000000008152506200065c60201b60201c565b565b6001600554620005839190620008df565b600581905550604051806080016040528060055481526020018473ffffffffffffffffffffffffffffffffffffffff1681526020018281526020018315158152506004600060055481526020019081526020016000206000820151816000015560208201518160010160006101000a81548173ffffffffffffffffffffffffffffffffffffffff021916908373ffffffffffffffffffffffffffffffffffffffff1602179055506040820151816002015560608201518160030160006101000a81548160ff021916908315150217905550905050505050565b60016009546200066d9190620008df565b6009819055506040518060400160405280600954815260200182815250600860006009548152602001908152602001600020600082015181600001556020820151816001019080519060200190620006c7929190620006ce565b5090505050565b828054620006dc906200097a565b90600052602060002090601f0160209004810192826200070057600085556200074c565b82601f106200071b57805160ff19168380011785556200074c565b828001600101855582156200074c579182015b828111156200074b5782518255916020019190600101906200072e565b5b5090506200075b91906200075f565b5090565b5b808211156200077a57600081600090555060010162000760565b5090565b6000620007956200078f84620008b0565b6200087c565b90508083825260208201905082856020860282011115620007b557600080fd5b60005b85811015620007e95781620007ce8882620007f3565b845260208401935060208301925050600181019050620007b8565b5050509392505050565b600081519050620008048162000a8b565b92915050565b600082601f8301126200081c57600080fd5b81516200082e8482602086016200077e565b91505092915050565b6000602082840312156200084a57600080fd5b600082015167ffffffffffffffff8111156200086557600080fd5b62000873848285016200080a565b91505092915050565b6000604051905081810181811067ffffffffffffffff82111715620008a657620008a562000a5c565b5b8060405250919050565b600067ffffffffffffffff821115620008ce57620008cd62000a5c565b5b602082029050602081019050919050565b6000620008ec8262000970565b9150620008f98362000970565b9250827fffffffffffffffffffffffffffffffffffffffffffffffffffffffffffffffff03821115620009315762000930620009fe565b5b828201905092915050565b6000620009498262000950565b9050919050565b600073ffffffffffffffffffffffffffffffffffffffff82169050919050565b6000819050919050565b600060028204905060018216806200099357607f821691505b60208210811415620009aa57620009a962000a2d565b5b50919050565b6000620009bd8262000970565b91507fffffffffffffffffffffffffffffffffffffffffffffffffffffffffffffffff821415620009f357620009f2620009fe565b5b600182019050919050565b7f4e487b7100000000000000000000000000000000000000000000000000000000600052601160045260246000fd5b7f4e487b7100000000000000000000000000000000000000000000000000000000600052602260045260246000fd5b7f4e487b7100000000000000000000000000000000000000000000000000000000600052604160045260246000fd5b62000a96816200093c565b811462000aa257600080fd5b50565b6121438062000ab56000396000f3fe608060405234801561001057600080fd5b506004361061014d5760003560e01c8063584909d9116100c3578063ce606ee01161007c578063ce606ee01461039b578063dfe00c51146103b9578063e02e1bfd146103d5578063e0df7bb6146103f3578063e5aa3d5814610411578063f64255fe1461042f5761014d565b8063584909d9146102ab57806363a094cb146102c95780637acc0b20146102e7578063982fb9d8146103185780639995280e14610348578063a02192741461037f5761014d565b80632c99bea1116101155780632c99bea1146101e25780632d35a8a2146102005780632f8b2a031461021e5780633477ee2e1461023c578063399aef291461026f5780633e8d166c1461028d5761014d565b8063022914a71461015257806307b94ded1461018257806312514bba146101a0578063296320b8146101bc5780632c953765146101c6575b600080fd5b61016c600480360381019061016791906118f9565b61044b565b6040516101799190611c97565b60405180910390f35b61018a61046b565b6040516101979190611cb2565b60405180910390f35b6101ba60048036038101906101b59190611b87565b6104f9565b005b6101c4610aec565b005b6101e060048036038101906101db9190611ab0565b610d5a565b005b6101ea610e50565b6040516101f79190611cf4565b60405180910390f35b610208610e56565b6040516102159190611cf4565b60405180910390f35b610226610e5c565b6040516102339190611cb2565b60405180910390f35b61025660048036038101906102519190611b87565b610eea565b6040516102669493929190611da9565b60405180910390f35b610277610f47565b6040516102849190611cb2565b60405180910390f35b610295610fd5565b6040516102a29190611cb2565b60405180910390f35b6102b3611067565b6040516102c09190611cf4565b60405180910390f35b6102d161106d565b6040516102de9190611cb2565b60405180910390f35b61030160048036038101906102fc9190611b87565b6110fb565b60405161030f929190611dee565b60405180910390f35b610332600480360381019061032d91906118f9565b6111a7565b60405161033f9190611c97565b60405180910390f35b610362600480360381019061035d9190611b87565b6111c7565b604051610376989796959493929190611d0f565b60405180910390f35b61039960048036038101906103949190611922565b61146f565b005b6103a3611623565b6040516103b09190611c7c565b60405180910390f35b6103d360048036038101906103ce9190611a6f565b611647565b005b6103dd6116b5565b6040516103ea9190611cf4565b60405180910390f35b6103fb6116bb565b6040516104089190611cf4565b60405180910390f35b6104196116c1565b6040516104269190611cf4565b60405180910390f35b61044960048036038101906104449190611a20565b6116c7565b005b60026020528060005260406000206000915054906101000a900460ff1681565b600d805461047890611faf565b80601f01602080910402602001604051908101604052809291908181526020018280546104a490611faf565b80156104f15780601f106104c6576101008083540402835291602001916104f1565b820191906000526020600020905b8154815290600101906020018083116104d457829003601f168201915b505050505081565b600160003373ffffffffffffffffffffffffffffffffffffffff1673ffffffffffffffffffffffffffffffffffffffff16815260200190815260200160002060009054906101000a900460ff161561055057600080fd5b600260003373ffffffffffffffffffffffffffffffffffffffff1673ffffffffffffffffffffffffffffffffffffffff16815260200190815260200160002060009054906101000a900460ff166105a657600080fd5b6000811180156105b857506005548111155b6105c157600080fd5b60018060003373ffffffffffffffffffffffffffffffffffffffff1673ffffffffffffffffffffffffffffffffffffffff16815260200190815260200160002060006101000a81548160ff0219169083151502179055506003600081548092919061062b90611fe1565b919050555060006004600083815260200190815260200160002060010160009054906101000a900473ffffffffffffffffffffffffffffffffffffffff1690506001600260008373ffffffffffffffffffffffffffffffffffffffff1673ffffffffffffffffffffffffffffffffffffffff16815260200190815260200160002060006101000a81548160ff0219169083151502179055506000600260003373ffffffffffffffffffffffffffffffffffffffff1673ffffffffffffffffffffffffffffffffffffffff16815260200190815260200160002060006101000a81548160ff021916908315150217905550600354600460008481526020019081526020016000206002018190555060016004600084815260200190815260200160002060030160006101000a81548160ff021916908315150217905550600060046000600160035461077c9190611ef1565b815260200190815260200160002060030160006101000a81548160ff02191690831515021790555060606000600a80546107b590611faf565b905014156108655760066000600754815260200190815260200160002060030180546107e090611faf565b80601f016020809104026020016040519081016040528092919081815260200182805461080c90611faf565b80156108595780601f1061082e57610100808354040283529160200191610859565b820191906000526020600020905b81548152906001019060200180831161083c57829003601f168201915b505050505090506108f3565b600a805461087290611faf565b80601f016020809104026020016040519081016040528092919081815260200182805461089e90611faf565b80156108eb5780601f106108c0576101008083540402835291602001916108eb565b820191906000526020600020905b8154815290600101906020018083116108ce57829003601f168201915b505050505090505b6000600b5490506000600c805461090990611faf565b80601f016020809104026020016040519081016040528092919081815260200182805461093590611faf565b80156109825780601f1061095757610100808354040283529160200191610982565b820191906000526020600020905b81548152906001019060200180831161096557829003601f168201915b505050505090506000600d805461099890611faf565b80601f01602080910402602001604051908101604052809291908181526020018280546109c490611faf565b8015610a115780601f106109e657610100808354040283529160200191610a11565b820191906000526020600020905b8154815290600101906020018083116109f457829003601f168201915b505050505090506000600e8054610a2790611faf565b80601f0160208091040260200160405190810160405280929190818152602001828054610a5390611faf565b8015610aa05780601f10610a7557610100808354040283529160200191610aa0565b820191906000526020600020905b815481529060010190602001808311610a8357829003601f168201915b50505050509050610ab63387878787878761146f565b867fecd485fb7933c042703818e51dc30ebe4595702387a61669e8216320b730218a60405160405180910390a250505050505050565b610b2a6040518060400160405280600981526020017f50726f6475637420300000000000000000000000000000000000000000000000815250611647565b610b686040518060400160405280600981526020017f50726f6475637420310000000000000000000000000000000000000000000000815250611647565b610ba66040518060400160405280600981526020017f50726f6475637420320000000000000000000000000000000000000000000000815250611647565b610be46040518060400160405280600981526020017f50726f6475637420330000000000000000000000000000000000000000000000815250611647565b610c226040518060400160405280600981526020017f50726f6475637420340000000000000000000000000000000000000000000000815250611647565b610c606040518060400160405280600981526020017f50726f6475637420350000000000000000000000000000000000000000000000815250611647565b610c9e6040518060400160405280600981526020017f50726f6475637420360000000000000000000000000000000000000000000000815250611647565b610cdc6040518060400160405280600981526020017f50726f6475637420370000000000000000000000000000000000000000000000815250611647565b610d1a6040518060400160405280600981526020017f50726f6475637420380000000000000000000000000000000000000000000000815250611647565b610d586040518060400160405280600981526020017f50726f6475637420390000000000000000000000000000000000000000000000815250611647565b565b600260003373ffffffffffffffffffffffffffffffffffffffff1673ffffffffffffffffffffffffffffffffffffffff16815260200190815260200160002060009054906101000a900460ff16610de6576040517f08c379a0000000000000000000000000000000000000000000000000000000008152600401610ddd90611cd4565b60405180910390fd5b84600a9080519060200190610dfc9291906117af565b5083600b8190555082600c9080519060200190610e1a9291906117af565b5081600d9080519060200190610e319291906117af565b5080600e9080519060200190610e489291906117af565b505050505050565b60075481565b60055481565b600a8054610e6990611faf565b80601f0160208091040260200160405190810160405280929190818152602001828054610e9590611faf565b8015610ee25780601f10610eb757610100808354040283529160200191610ee2565b820191906000526020600020905b815481529060010190602001808311610ec557829003601f168201915b505050505081565b60046020528060005260406000206000915090508060000154908060010160009054906101000a900473ffffffffffffffffffffffffffffffffffffffff16908060020154908060030160009054906101000a900460ff16905084565b600e8054610f5490611faf565b80601f0160208091040260200160405190810160405280929190818152602001828054610f8090611faf565b8015610fcd5780601f10610fa257610100808354040283529160200191610fcd565b820191906000526020600020905b815481529060010190602001808311610fb057829003601f168201915b505050505081565b6060600a8054610fe490611faf565b80601f016020809104026020016040519081016040528092919081815260200182805461101090611faf565b801561105d5780601f106110325761010080835404028352916020019161105d565b820191906000526020600020905b81548152906001019060200180831161104057829003601f168201915b5050505050905090565b600b5481565b600c805461107a90611faf565b80601f01602080910402602001604051908101604052809291908181526020018280546110a690611faf565b80156110f35780601f106110c8576101008083540402835291602001916110f3565b820191906000526020600020905b8154815290600101906020018083116110d657829003601f168201915b505050505081565b600860205280600052604060002060009150905080600001549080600101805461112490611faf565b80601f016020809104026020016040519081016040528092919081815260200182805461115090611faf565b801561119d5780601f106111725761010080835404028352916020019161119d565b820191906000526020600020905b81548152906001019060200180831161118057829003601f168201915b5050505050905082565b60016020528060005260406000206000915054906101000a900460ff1681565b60066020528060005260406000206000915090508060000154908060010160009054906101000a900473ffffffffffffffffffffffffffffffffffffffff16908060020160009054906101000a900473ffffffffffffffffffffffffffffffffffffffff169080600301805461123c90611faf565b80601f016020809104026020016040519081016040528092919081815260200182805461126890611faf565b80156112b55780601f1061128a576101008083540402835291602001916112b5565b820191906000526020600020905b81548152906001019060200180831161129857829003601f168201915b5050505050908060040154908060050180546112d090611faf565b80601f01602080910402602001604051908101604052809291908181526020018280546112fc90611faf565b80156113495780601f1061131e57610100808354040283529160200191611349565b820191906000526020600020905b81548152906001019060200180831161132c57829003601f168201915b50505050509080600601805461135e90611faf565b80601f016020809104026020016040519081016040528092919081815260200182805461138a90611faf565b80156113d75780601f106113ac576101008083540402835291602001916113d7565b820191906000526020600020905b8154815290600101906020018083116113ba57829003601f168201915b5050505050908060070180546113ec90611faf565b80601f016020809104026020016040519081016040528092919081815260200182805461141890611faf565b80156114655780601f1061143a57610100808354040283529160200191611465565b820191906000526020600020905b81548152906001019060200180831161144857829003601f168201915b5050505050905088565b600160075461147e9190611e9b565b60078190555060405180610100016040528060075481526020018873ffffffffffffffffffffffffffffffffffffffff1681526020018773ffffffffffffffffffffffffffffffffffffffff168152602001868152602001858152602001848152602001838152602001828152506006600060075481526020019081526020016000206000820151816000015560208201518160010160006101000a81548173ffffffffffffffffffffffffffffffffffffffff021916908373ffffffffffffffffffffffffffffffffffffffff16021790555060408201518160020160006101000a81548173ffffffffffffffffffffffffffffffffffffffff021916908373ffffffffffffffffffffffffffffffffffffffff16021790555060608201518160030190805190602001906115b59291906117af565b506080820151816004015560a08201518160050190805190602001906115dc9291906117af565b5060c08201518160060190805190602001906115f99291906117af565b5060e08201518160070190805190602001906116169291906117af565b5090505050505050505050565b60008054906101000a900473ffffffffffffffffffffffffffffffffffffffff1681565b60016009546116569190611e9b565b60098190555060405180604001604052806009548152602001828152506008600060095481526020019081526020016000206000820151816000015560208201518160010190805190602001906116ae9291906117af565b5090505050565b60035481565b60095481565b600f5481565b60016005546116d69190611e9b565b600581905550604051806080016040528060055481526020018473ffffffffffffffffffffffffffffffffffffffff1681526020018281526020018315158152506004600060055481526020019081526020016000206000820151816000015560208201518160010160006101000a81548173ffffffffffffffffffffffffffffffffffffffff021916908373ffffffffffffffffffffffffffffffffffffffff1602179055506040820151816002015560608201518160030160006101000a81548160ff021916908315150217905550905050505050565b8280546117bb90611faf565b90600052602060002090601f0160209004810192826117dd5760008555611824565b82601f106117f657805160ff1916838001178555611824565b82800160010185558215611824579182015b82811115611823578251825591602001919060010190611808565b5b5090506118319190611835565b5090565b5b8082111561184e576000816000905550600101611836565b5090565b600061186561186084611e4f565b611e1e565b90508281526020810184848401111561187d57600080fd5b611888848285611f6d565b509392505050565b60008135905061189f816120c8565b92915050565b6000813590506118b4816120df565b92915050565b600082601f8301126118cb57600080fd5b81356118db848260208601611852565b91505092915050565b6000813590506118f3816120f6565b92915050565b60006020828403121561190b57600080fd5b600061191984828501611890565b91505092915050565b600080600080600080600060e0888a03121561193d57600080fd5b600061194b8a828b01611890565b975050602061195c8a828b01611890565b965050604088013567ffffffffffffffff81111561197957600080fd5b6119858a828b016118ba565b95505060606119968a828b016118e4565b945050608088013567ffffffffffffffff8111156119b357600080fd5b6119bf8a828b016118ba565b93505060a088013567ffffffffffffffff8111156119dc57600080fd5b6119e88a828b016118ba565b92505060c088013567ffffffffffffffff811115611a0557600080fd5b611a118a828b016118ba565b91505092959891949750929550565b600080600060608486031215611a3557600080fd5b6000611a4386828701611890565b9350506020611a54868287016118a5565b9250506040611a65868287016118e4565b9150509250925092565b600060208284031215611a8157600080fd5b600082013567ffffffffffffffff811115611a9b57600080fd5b611aa7848285016118ba565b91505092915050565b600080600080600060a08688031215611ac857600080fd5b600086013567ffffffffffffffff811115611ae257600080fd5b611aee888289016118ba565b9550506020611aff888289016118e4565b945050604086013567ffffffffffffffff811115611b1c57600080fd5b611b28888289016118ba565b935050606086013567ffffffffffffffff811115611b4557600080fd5b611b51888289016118ba565b925050608086013567ffffffffffffffff811115611b6e57600080fd5b611b7a888289016118ba565b9150509295509295909350565b600060208284031215611b9957600080fd5b6000611ba7848285016118e4565b91505092915050565b611bb981611f25565b82525050565b611bc881611f37565b82525050565b6000611bd982611e7f565b611be38185611e8a565b9350611bf3818560208601611f7c565b611bfc816120b7565b840191505092915050565b6000611c14602483611e8a565b91507f4f6e6c79206f776e6572732063616e207365742074686520726573742076616c60008301527f7565732e000000000000000000000000000000000000000000000000000000006020830152604082019050919050565b611c7681611f63565b82525050565b6000602082019050611c916000830184611bb0565b92915050565b6000602082019050611cac6000830184611bbf565b92915050565b60006020820190508181036000830152611ccc8184611bce565b905092915050565b60006020820190508181036000830152611ced81611c07565b9050919050565b6000602082019050611d096000830184611c6d565b92915050565b600061010082019050611d25600083018b611c6d565b611d32602083018a611bb0565b611d3f6040830189611bb0565b8181036060830152611d518188611bce565b9050611d606080830187611c6d565b81810360a0830152611d728186611bce565b905081810360c0830152611d868185611bce565b905081810360e0830152611d9a8184611bce565b90509998505050505050505050565b6000608082019050611dbe6000830187611c6d565b611dcb6020830186611bb0565b611dd86040830185611c6d565b611de56060830184611bbf565b95945050505050565b6000604082019050611e036000830185611c6d565b8181036020830152611e158184611bce565b90509392505050565b6000604051905081810181811067ffffffffffffffff82111715611e4557611e44612088565b5b8060405250919050565b600067ffffffffffffffff821115611e6a57611e69612088565b5b601f19601f8301169050602081019050919050565b600081519050919050565b600082825260208201905092915050565b6000611ea682611f63565b9150611eb183611f63565b9250827fffffffffffffffffffffffffffffffffffffffffffffffffffffffffffffffff03821115611ee657611ee561202a565b5b828201905092915050565b6000611efc82611f63565b9150611f0783611f63565b925082821015611f1a57611f1961202a565b5b828203905092915050565b6000611f3082611f43565b9050919050565b60008115159050919050565b600073ffffffffffffffffffffffffffffffffffffffff82169050919050565b6000819050919050565b82818337600083830152505050565b60005b83811015611f9a578082015181840152602081019050611f7f565b83811115611fa9576000848401525b50505050565b60006002820490506001821680611fc757607f821691505b60208210811415611fdb57611fda612059565b5b50919050565b6000611fec82611f63565b91507fffffffffffffffffffffffffffffffffffffffffffffffffffffffffffffffff82141561201f5761201e61202a565b5b600182019050919050565b7f4e487b7100000000000000000000000000000000000000000000000000000000600052601160045260246000fd5b7f4e487b7100000000000000000000000000000000000000000000000000000000600052602260045260246000fd5b7f4e487b7100000000000000000000000000000000000000000000000000000000600052604160045260246000fd5b6000601f19601f8301169050919050565b6120d181611f25565b81146120dc57600080fd5b50565b6120e881611f37565b81146120f357600080fd5b50565b6120ff81611f63565b811461210a57600080fd5b5056fea2646970667358221220080b53496de2620b9cc5242632e8792b71e980f357076e4c6910d6bba00adb1764736f6c63430008000033",
  "immutableReferences": {},
  "source": "pragma solidity ^0.8.0;\r\n\r\ncontract SupplyChain {\r\n    // Model a Candidate\r\n    struct Candidate {\r\n        uint id;\r\n        address Account;\r\n        uint chainSeqNo;\r\n        bool isOwner;\r\n    }\r\n\r\n    struct transferShipment {\r\n        uint transferId;\r\n        address origin;\r\n        address destination;\r\n        string product;\r\n        uint amount;\r\n        string departureDate;\r\n        string arrivalDate;   \r\n        string description;      \r\n    }\r\n\r\n    struct Product {\r\n        uint productId;\r\n        string name;\r\n    }\r\n\r\n    address public contractOwner;\r\n\r\n    modifier onlyOwner() {\r\n     require(msg.sender == contractOwner, \"Only the contract owner can perform this action.\");\r\n     _;\r\n    }\r\n\r\n    // Store accounts that have transfered\r\n    mapping(address => bool) public senders;\r\n\r\n    // Store accounts with ownership\r\n    mapping(address => bool) public owners;\r\n\r\n    // Store Chain Count\r\n    uint public chainCount = 1;\r\n\r\n    // Store Candidates\r\n    mapping(uint => Candidate) public candidates;\r\n\r\n    // Store Candidates Count\r\n    uint public candidatesCount;\r\n\r\n    // Store Transfer Shipments\r\n    mapping(uint => transferShipment) public transferShipments;\r\n\r\n    // Store Transfer Shipment Count\r\n    uint public transferShipmentsCount;\r\n\r\n    // Store Products\r\n    mapping(uint => Product) public products;\r\n\r\n    uint public productsCount;\r\n\r\n\r\n   string public productToUpdate;\r\n   uint   public amountToUpdate;\r\n   string public departureToUpdate;\r\n   string public arrivalToUpdate;\r\n   string public descriptionToUpdate;\r\n\r\n    function getProductToUpdate() public view returns (string memory) {\r\n        return productToUpdate;\r\n    }\r\n    \r\n    // Helper\r\n    uint public i = 0;\r\n\r\n    // transfer event\r\n    event transferedEvent (\r\n        uint indexed _candidateId\r\n    );\r\n\r\n    constructor (address[] memory accounts) public {\r\n     addMultipleProducts();\r\n     for (i; i<accounts.length; i++){\r\n       bool isTheOwner = false;\r\n       uint chainNo = 0;\r\n       if(i==0){\r\n        contractOwner = accounts[i];\r\n        owners[accounts[i]] = true;\r\n        isTheOwner = true;\r\n        chainNo = 1;\r\n       }else{\r\n        owners[accounts[i]] = false;\r\n       }\r\n       addCandidate(accounts[i],isTheOwner,chainNo);\r\n      }\r\n    }\r\n\r\n\r\n    function setValues(string memory _productToUpdate, uint _amountToUpdate,string memory _departureToUpdate,\r\n        string memory _arrivalToUpdate,string memory _descriptionToUpdate) public {\r\n    require(owners[msg.sender], \"Only owners can set the rest values.\");\r\n    productToUpdate = _productToUpdate;\r\n    amountToUpdate = _amountToUpdate;\r\n    departureToUpdate = _departureToUpdate;\r\n    arrivalToUpdate = _arrivalToUpdate;\r\n    descriptionToUpdate = _descriptionToUpdate;\r\n    }\r\n\r\n\r\n    function addProduct(string memory _productName) public{\r\n        productsCount = productsCount + 1;\r\n        products[productsCount] = Product(productsCount, _productName);\r\n    }\r\n\r\n    function addCandidate(address _address,bool _isTheOwner,uint _chainNo) public{\r\n        candidatesCount = candidatesCount + 1;\r\n        candidates[candidatesCount] = Candidate(candidatesCount, _address, _chainNo, _isTheOwner);\r\n    }\r\n\r\n    function addTransferShipment(address _origin,address _destination,string memory _product,uint _amount,string memory _departureDate,string memory _arrivalDate,string memory _description) public{\r\n        transferShipmentsCount = transferShipmentsCount + 1;\r\n        transferShipments[transferShipmentsCount] = \r\n        transferShipment(transferShipmentsCount,_origin,_destination,_product,_amount,_departureDate,_arrivalDate,_description);\r\n    }\r\n\r\n    function transfer (uint _candidateId) public {\r\n        // require that they haven't transfered before\r\n        require(!senders[msg.sender]);\r\n        require(owners[msg.sender]);\r\n\r\n        // require a valid candidate\r\n        require(_candidateId > 0 && _candidateId <= candidatesCount);\r\n\r\n        // record that sender has transfered\r\n        senders[msg.sender] = true;\r\n\r\n        chainCount ++;\r\n\r\n        address newOwnerAddress = candidates[_candidateId].Account;\r\n        owners[newOwnerAddress] = true;\r\n        owners[msg.sender] = false;\r\n\r\n        candidates[_candidateId].chainSeqNo = chainCount;\r\n        candidates[_candidateId].isOwner = true;\r\n        candidates[chainCount-1].isOwner = false;\r\n\r\n        string memory product;\r\n        if (bytes(productToUpdate).length == 0) {\r\n         product = transferShipments[transferShipmentsCount].product;\r\n        }else{\r\n         product = productToUpdate;\r\n        }\r\n\r\n        uint amount = amountToUpdate;\r\n        string memory departureDate = departureToUpdate;\r\n        string memory arrivalDate = arrivalToUpdate;   \r\n        string memory description = descriptionToUpdate;  \r\n\r\n        addTransferShipment(msg.sender,newOwnerAddress,product,amount,departureDate,arrivalDate,description);\r\n\r\n        emit transferedEvent(_candidateId);\r\n        }\r\n\r\n        function addMultipleProducts() public {\r\n          addProduct(\"Product 0\");  \r\n          addProduct(\"Product 1\");\r\n          addProduct(\"Product 2\");\r\n          addProduct(\"Product 3\");\r\n          addProduct(\"Product 4\");\r\n          addProduct(\"Product 5\");\r\n          addProduct(\"Product 6\");\r\n          addProduct(\"Product 7\");\r\n          addProduct(\"Product 8\");\r\n          addProduct(\"Product 9\");\r\n        }\r\n    \r\n}",
  "sourcePath": "C:\\Users\\PX\\supplyChain\\contracts\\SupplyChain.sol",
  "compiler": {
    "name": "solc",
    "version": "0.8.0+commit.c7dfd78e.Emscripten.clang"
  },
  "schemaVersion": "3.4.14",
  "updatedAt": "2023-07-27T20:17:15.614Z",
  "networkType": "ethereum",
  "devdoc": {
    "kind": "dev",
    "methods": {},
    "version": 1
  },
  "userdoc": {
    "kind": "user",
    "methods": {},
    "version": 1
  }
}